:100000000C942A000C9447000C9447000C94470071
:100010000C9447000C9447000C9447000C94470044
:100020000C9447000C9447000C9412250C94470044
:100030000C9447000C9443240C9447000C94470004
:100040000C9447000C9447000C9447000C94470014
:100050000C94470011241FBECFE5D8E0DEBFCDBF12
:1000600011E0A0E6B0E0EEE9F9E602C005900D92DD
:10007000A63CB107D9F721E0A6ECB1E001C01D9282
:10008000AA3EB207E1F70E949D250C94CD340C9452
:100090000000CF93DF9300D0CDB7DEB789836A83AA
:1000A0008981882F90E08130910591F0823091050F
:1000B0001CF4892B39F01EC08230910579F003972A
:1000C00099F018C08AE390E02A81FC01208312C0D5
:1000D00087E390E02A81FC0120830CC084E390E058
:1000E0002A81FC01208306C081E390E02A81FC0183
:1000F0002083000000000F900F90DF91CF910895B2
:10010000CF93DF9300D0CDB7DEB789836A8389812F
:10011000882F90E08130910591F0823091051CF498
:10012000892B39F01EC08230910579F0039799F040
:1001300018C08BE390E02A81FC01208312C088E381
:1001400090E02A81FC0120830CC085E390E02A81A5
:10015000FC01208306C082E390E02A81FC01208319
:10016000000000000F900F90DF91CF910895CF9382
:10017000DF931F92CDB7DEB789838981882F90E006
:100180008130910589F0823091051CF4892B39F07A
:100190001AC08230910569F0039781F014C089E399
:1001A00090E0FC01808110C086E390E0FC0180813A
:1001B0000BC083E390E0FC01808106C080E390E007
:1001C000FC01808101C080E00F90DF91CF91089504
:1001D000CF93DF9300D01F92CDB7DEB789836A83B8
:1001E0004B838981882F90E081309105B1F1823075
:1001F00091051CF4892B49F0A8C08230910509F4BF
:1002000054C0039709F479C0A0C08AE390E02AE3C0
:1002100030E0F90130814A8120EF24272323FC01BB
:1002200020838AE390E02AE330E0F9012081522F15
:100230002B81422F4F702B81222F30E02295329557
:10024000307F3227207F3227242B4A813FE034271A
:100250002323252BFC01208378C087E390E027E34C
:1002600030E0F90130814A8120EF24272323FC016B
:10027000208387E390E027E330E0F9012081522FCB
:100280002B81422F4F702B81222F30E02295329507
:10029000307F3227207F3227242B4A813FE03427CA
:1002A0002323252BFC01208350C084E390E024E32A
:1002B00030E0F90130814A8120EF24272323FC011B
:1002C000208384E390E024E330E0F9012081522F81
:1002D0002B81422F4F702B81222F30E022953295B7
:1002E000307F3227207F3227242B4A813FE034277A
:1002F0002323252BFC01208328C081E390E021E308
:1003000030E0F90130814A8120EF24272323FC01CA
:10031000208381E390E021E330E0F9012081522F36
:100320002B81422F4F702B81222F30E02295329566
:10033000307F3227207F3227242B4A813FE0342729
:100340002323252BFC012083000000000F900F9039
:100350000F90DF91CF910895CF93DF9300D01F923C
:10036000CDB7DEB789836A834B838981882F90E07C
:1003700081309105B1F1823091051CF4892B49F04F
:10038000A8C08230910509F454C0039709F479C0DC
:10039000A0C08BE390E02BE330E0F90130814A818B
:1003A00020EF24272323FC0120838BE390E02BE321
:1003B00030E0F9012081522F2B81422F4F702B8189
:1003C000222F30E022953295307F3227207F32274E
:1003D000242B4A813FE034272323252BFC01208353
:1003E00078C088E390E028E330E0F90130814A8169
:1003F00020EF24272323FC01208388E390E028E3D7
:1004000030E0F9012081522F2B81422F4F702B8138
:10041000222F30E022953295307F3227207F3227FD
:10042000242B4A813FE034272323252BFC01208302
:1004300050C085E390E025E330E0F90130814A8146
:1004400020EF24272323FC01208385E390E025E38C
:1004500030E0F9012081522F2B81422F4F702B81E8
:10046000222F30E022953295307F3227207F3227AD
:10047000242B4A813FE034272323252BFC012083B2
:1004800028C082E390E022E330E0F90130814A8124
:1004900020EF24272323FC01208382E390E022E342
:1004A00030E0F9012081522F2B81422F4F702B8198
:1004B000222F30E022953295307F3227207F32275D
:1004C000242B4A813FE034272323252BFC01208362
:1004D000000000000F900F900F90DF91CF910895D2
:1004E000CF93DF9300D01F92CDB7DEB78A836B83A3
:1004F0008A8186958695869589838A8187708A8385
:100500008981882F90E08130910509F440C08230C4
:1005100091051CF4892B49F0D6C08230910509F46D
:1005200068C0039709F497C0CEC08B818823A9F0D7
:100530008AE390E02AE330E0F9012081622F2A81EA
:10054000422F50E021E030E002C0220F331F4A95D5
:10055000E2F7262BFC012083AFC08B81882309F0B2
:10056000ABC08AE390E02AE330E0F9012081622FFA
:100570002A81422F50E021E030E002C0220F331FD9
:100580004A95E2F720952623FC01208395C08B81B4
:100590008823A9F087E390E027E330E0F901208188
:1005A000622F2A81422F50E021E030E002C0220F6A
:1005B000331F4A95E2F7262BFC0120837FC08B81F5
:1005C000882309F07BC087E390E027E330E0F9015E
:1005D0002081622F2A81422F50E021E030E002C0CA
:1005E000220F331F4A95E2F720952623FC01208332
:1005F00065C08B818823A9F084E390E024E330E098
:10060000F9012081622F2A81422F50E021E030E061
:1006100002C0220F331F4A95E2F7262BFC012083EC
:100620004FC08B81882309F04BC084E390E024E322
:1006300030E0F9012081622F2A81422F50E021E031
:1006400030E002C0220F331F4A95E2F7209526239F
:10065000FC01208335C08B818823A9F081E390E0E1
:1006600021E330E0F9012081622F2A81422F50E0FE
:1006700021E030E002C0220F331F4A95E2F7262B1B
:10068000FC0120831FC08B818823E1F481E390E08B
:1006900021E330E0F9012081622F2A81422F50E0CE
:1006A00021E030E002C0220F331F4A95E2F7209587
:1006B0002623FC01208306C0000005C0000003C003
:1006C000000001C0000000000F900F900F90DF911C
:1006D000CF910895CF93DF9300D01F92CDB7DEB7AF
:1006E0008A836B838A8186958695869589838A819C
:1006F00087708A838981882F90E08130910509F481
:1007000040C0823091051CF4892B49F0D6C082305C
:10071000910509F468C0039709F497C0CEC08B8196
:100720008823A9F08BE390E02BE330E0F9012081EE
:10073000622F2A81422F50E021E030E002C0220FD8
:10074000331F4A95E2F7262BFC012083AFC08B8133
:10075000882309F0ABC08BE390E02BE330E0F90194
:100760002081622F2A81422F50E021E030E002C038
:10077000220F331F4A95E2F720952623FC012083A0
:1007800095C08B818823A9F088E390E028E330E0CE
:10079000F9012081622F2A81422F50E021E030E0D0
:1007A00002C0220F331F4A95E2F7262BFC0120835B
:1007B0007FC08B81882309F07BC088E390E028E329
:1007C00030E0F9012081622F2A81422F50E021E0A0
:1007D00030E002C0220F331F4A95E2F7209526230E
:1007E000FC01208365C08B818823A9F085E390E01C
:1007F00025E330E0F9012081622F2A81422F50E069
:1008000021E030E002C0220F331F4A95E2F7262B89
:10081000FC0120834FC08B81882309F04BC085E306
:1008200090E025E330E0F9012081622F2A81422FF8
:1008300050E021E030E002C0220F331F4A95E2F77A
:1008400020952623FC01208335C08B818823A9F0C5
:1008500082E390E022E330E0F9012081622F2A81D7
:10086000422F50E021E030E002C0220F331F4A95B2
:10087000E2F7262BFC0120831FC08B818823E1F443
:1008800082E390E022E330E0F9012081622F2A81A7
:10089000422F50E021E030E002C0220F331F4A9582
:1008A000E2F720952623FC01208306C0000005C046
:1008B000000003C0000001C0000000000F900F9076
:1008C0000F90DF91CF910895CF93DF9300D01F92C7
:1008D000CDB7DEB78B838B818695869586958A8387
:1008E0008B8187708B838A81882F90E0813091057E
:1008F000E9F0823091051CF4892B39F04AC082302E
:10090000910529F10397A1F144C089E390E0FC012E
:100910008081882F90E02B81222F30E002C09595B6
:1009200087952A95E2F78170898333C086E390E04A
:10093000FC018081882F90E02B81222F30E002C0C3
:10094000959587952A95E2F78170898322C083E384
:1009500090E0FC018081882F90E02B81222F30E0F5
:1009600002C0959587952A95E2F78170898311C019
:1009700080E390E0FC018081882F90E02B81222F82
:1009800030E002C0959587952A95E2F781708983BA
:10099000000089810F900F900F90DF91CF91089503
:1009A000CF93DF9300D0CDB7DEB78A838A81869557
:1009B0008695869589838A8187708A838981882F25
:1009C00090E08130910511F1823091051CF4892B62
:1009D00041F05BC08230910571F1039709F440C08A
:1009E00054C08BE390E02BE330E0F9012081622FCB
:1009F0002A81422F50E021E030E002C0220F331F55
:100A00004A95E2F72627FC0120833FC088E390E067
:100A100028E330E0F9012081622F2A81422F50E043
:100A200021E030E002C0220F331F4A95E2F726276B
:100A3000FC0120832AC085E390E025E330E0F90142
:100A40002081622F2A81422F50E021E030E002C055
:100A5000220F331F4A95E2F72627FC01208315C099
:100A600082E390E022E330E0F9012081622F2A81C5
:100A7000422F50E021E030E002C0220F331F4A95A0
:100A8000E2F72627FC012083000000000F900F9062
:100A9000DF91CF910895CF93DF93CDB7DEB76C97F9
:100AA0000FB6F894DEBF0FBECDBF4FEF60E082E01F
:100AB0000E94E8006FEF86E10E9470026FEF85E10F
:100AC0000E9470026FEF84E10E94700280E090E06B
:100AD000A0E2B2E489839A83AB83BC8320E030E058
:100AE0004AEF54E469817A818B819C810E94E632CD
:100AF000DC01CB018B8B9C8BAD8BBE8B20E030E07F
:100B000040E85FE36B897C898D899E890E94F9307A
:100B100088232CF481E090E0988F8F8B3FC020E0F9
:100B20003FEF4FE757E46B897C898D899E890E944E
:100B3000E13218164CF520E030E040E251E46981E2
:100B40007A818B819C810E94E632DC01CB01BC0161
:100B5000CD010E94AC31DC01CB01988F8F8B0FC08F
:100B600088EC90E09A8F898F898D9A8D0197F1F7A3
:100B70009A8F898F8F89988D0197988F8F8B8F8906
:100B8000988D892B69F714C06B897C898D899E8922
:100B90000E94AC31DC01CB01988F8F8B8F89988DAF
:100BA0009C8F8B8F8B8D9C8D0197F1F79C8F8B8FFA
:100BB0008CE20E9470088CE00E94700881E00E9424
:100BC000700886E00E94700880E891E00E9443125D
:100BD00080E090E0AAE7B4E48D839E83AF83B8877A
:100BE00020E030E04AEF54E46D817E818F8198856A
:100BF0000E94E632DC01CB0189879A87AB87BC87EC
:100C000020E030E040E85FE369857A858B859C854C
:100C10000E94F93088232CF481E090E09E878D8734
:100C20003FC020E03FEF4FE757E469857A858B8529
:100C30009C850E94E13218164CF520E030E040E23D
:100C400051E46D817E818F8198850E94E632DC01BE
:100C5000CB01BC01CD010E94AC31DC01CB019E87F0
:100C60008D870FC088EC90E0988B8F878F8598894F
:100C70000197F1F7988B8F878D859E8501979E87C9
:100C80008D878D859E85892B69F714C069857A8546
:100C90008B859C850E94AC31DC01CB019E878D87C2
:100CA0008D859E859A8B898B89899A890197F1F721
:100CB0009A8B898B81E00E94700800006C960FB6B9
:100CC000F894DEBF0FBECDBFDF91CF910895CF93D3
:100CD000DF93CDB7DEB7C054D1090FB6F894DEBFAD
:100CE0000FBECDBF6FEF84E10E946A0380E090E009
:100CF000A0E8BFE389839A83AB83BC832BEA3AEAFB
:100D00004AE250E469817A818B819C810E94E632BB
:100D1000DC01CB018DA39EA3AFA3B8A789819A81E3
:100D2000AB81BC819C01AD01BC01CD010E948D3025
:100D3000DC01CB0189A79AA7ABA7BCA720E030E0D4
:100D400040E85FE36DA17EA18FA198A50E94F930D4
:100D500088231CF481E08DA7B2C020E03FEF4FE76D
:100D600057E469A57AA58BA59CA50E94E1321816C7
:100D70000CF07BC020E030E04AE754E469817A81DE
:100D80008B819C810E94FE30DC01CB018EA79FA746
:100D9000A8ABB9AB20E030E04AEF54E46EA57FA5E4
:100DA00088A999A90E94E632DC01CB018AAB9BABF2
:100DB000ACABBDAB20E030E040E85FE36AA97BA9C3
:100DC0008CA99DA90E94F93088232CF481E090E041
:100DD0009FAB8EAB3FC020E03FEF4FE757E46AA9DF
:100DE0007BA98CA99DA90E94E13218164CF520E040
:100DF00030E040E251E46EA57FA588A999A90E9440
:100E0000E632DC01CB01BC01CD010E94AC31DC013A
:100E1000CB019FAB8EAB0FC088EC90E099AF88AF51
:100E200088AD99AD0197F1F799AF88AF8EA99FA9C9
:100E300001979FAB8EAB8EA99FA9892B69F73FC005
:100E40006AA97BA98CA99DA90E94AC31DC01CB01C8
:100E50009FAB8EAB8EA99FA99BAF8AAF8AAD9BAD8E
:100E60000197F1F79BAF8AAF2AC020E030E04FE74F
:100E700053E46DA17EA18FA198A50E94E1321816BE
:100E8000ACF469A57AA58BA59CA50E94AC31DC01C8
:100E9000CB019DAF8CAF8CAD9DAD9FAF8EAF8EADB6
:100EA0009FAD0197F1F79FAF8EAF1CC06DA17EA1E2
:100EB0008FA198A50E94AC31DC01CB018DA72DA597
:100EC000CE01805C9F4FFC012083CE01805C9F4F50
:100ED000FC018081282F2A95F1F7CE01805C9F4F7D
:100EE000FC01208360E084E10E946A0380E090E0DE
:100EF000A0E8BFE38D839E83AF83B8872BEA3AEAED
:100F00004AE250E46D817E818F8198850E94E632AD
:100F1000DC01CB0189879A87AB87BC878D819E8155
:100F2000AF81B8859C01AD01BC01CD010E948D301F
:100F3000DC01CB018D879E87AF87B88B20E030E046
:100F400040E85FE369857A858B859C850E94F9304E
:100F500088231CF481E0898BB2C020E03FEF4FE78B
:100F600057E46D857E858F8598890E94E132181639
:100F70000CF07BC020E030E04AE754E46D817E81D4
:100F80008F8198850E94FE30DC01CB018A8B9B8B80
:100F9000AC8BBD8B20E030E04AEF54E46A897B895A
:100FA0008C899D890E94E632DC01CB018E8B9F8B60
:100FB000A88FB98F20E030E040E85FE36E897F8939
:100FC000888D998D0E94F93088232CF481E090E07F
:100FD0009B8F8A8F3FC020E03FEF4FE757E46E8939
:100FE0007F89888D998D0E94E13218164CF520E09A
:100FF00030E040E251E46A897B898C899D890E94B6
:10100000E632DC01CB01BC01CD010E94AC31DC0138
:10101000CB019B8F8A8F0FC088EC90E09D8F8C8FC7
:101020008C8D9D8D0197F1F79D8F8C8F8A8D9B8D77
:1010300001979B8F8A8F8A8D9B8D892B69F73FC083
:101040006E897F89888D998D0E94AC31DC01CB013E
:101050009B8F8A8F8A8D9B8D9F8F8E8F8E8D9F8D7C
:101060000197F1F79F8F8E8F2AC020E030E04FE785
:1010700053E469857A858B859C850E94E132181638
:10108000ACF46D857E858F8598890E94AC31DC013A
:10109000CB0199A388A388A199A19BA38AA38AA124
:1010A0009BA10197F1F79BA38AA30FC069857A855D
:1010B0008B859C850E94AC31DC01CB01898B8989B1
:1010C0008CA38CA18A95F1F78CA30000C05CDF4F44
:1010D0000FB6F894DEBF0FBECDBFDF91CF9108955C
:1010E0000F931F93CF93DF93CDB7DEB7C75AD109C4
:1010F0000FB6F894DEBF0FBECDBF9E0129553F4FFE
:10110000F901808360E085E10E946A0360E086E186
:101110000E946A03CE0189559F4FFC0180818C3269
:1011200009F0F2C0CE0189559F4FFC018081829564
:101130008F70482F60E082E00E94AC0180E090E078
:10114000A0E8BFE38D839E83AF83B88720E030E0C3
:101150004AEF54E46D817E818F8198850E94E6324A
:10116000DC01CB018BA79CA7ADA7BEA720E030E098
:1011700040E85FE36BA57CA58DA59EA50E94F93094
:1011800088232CF481E090E098AB8FA73FC020E04B
:101190003FEF4FE757E46BA57CA58DA59EA50E9468
:1011A000E13218164CF520E030E040E251E46D8168
:1011B0007E818F8198850E94E632DC01CB01BC01E3
:1011C000CD010E94AC31DC01CB0198AB8FA70FC0E1
:1011D00088EC90E09AAB89AB89A99AA90197F1F7BD
:1011E0009AAB89AB8FA598A9019798AB8FA78FA5CC
:1011F00098A9892B69F714C06BA57CA58DA59EA520
:101200000E94AC31DC01CB0198AB8FA78FA598A9C8
:101210009CAB8BAB8BA99CA90197F1F79CAB8BABDB
:101220000E94670680E090E0A0E8BFE38D8F9E8F6C
:10123000AF8FB8A320E030E04AEF54E46D8D7E8D8F
:101240008F8D98A10E94E632DC01CB0189A39AA37D
:10125000ABA3BCA320E030E040E85FE369A17AA142
:101260008BA19CA10E94F93088232CF481E090E0AE
:101270009EA38DA33FC020E03FEF4FE757E469A155
:101280007AA18BA19CA10E94E13218164CF520E0B6
:1012900030E040E251E46D8D7E8D8F8D98A10E94EB
:1012A000E632DC01CB01BC01CD010E94AC31DC0196
:1012B000CB019EA38DA30FC088EC90E098A78FA3CD
:1012C0008FA198A50197F1F798A78FA38DA19EA153
:1012D00001979EA38DA38DA19EA1892B69F714C0B0
:1012E00069A17AA18BA19CA10E94AC31DC01CB0148
:1012F0009EA38DA38DA19EA19AA789A789A59AA532
:101300000197F1F79AA789A7CE0189559F4FFC0154
:10131000808182958F70482F60E082E00E94AC014E
:1013200080E090E0A0E8BFE38D879E87AF87B88B11
:101330008E010B591F4F20E030E04AEF54E46D85D9
:101340007E858F8598890E94E632DC01CB01F80109
:1013500080839183A283B383CE018B599F4F20E07A
:1013600030E040E85FE3FC0160817181828193811C
:101370000E94F93088234CF4CE0187599F4F21E019
:1013800030E0FC013183208369C0CE018B599F4F2F
:1013900020E03FEF4FE757E4FC01608171818281DB
:1013A00093810E94E13218160CF046C020E030E034
:1013B00040E251E46D857E858F8598890E94E632F2
:1013C000DC01CB018E0107591F4FBC01CD010E94EA
:1013D000AC31DC01CB01F8019183808324C0CE01C4
:1013E00085599F4F28EC30E0FC0131832083CE01EA
:1013F00085599F4FFC01808191810197F1F79E01F2
:1014000025593F4FF90191838083CE0187599F4F22
:101410009E0127593F4FF901208131812150310927
:10142000FC0131832083CE0187599F4FFC018081CD
:101430009181892BA1F62CC08E0107591F4FCE0137
:101440008B599F4FFC0160817181828193810E9441
:10145000AC31DC01CB01F80191838083CE0183594B
:101460009F4F9E0127593F4FF90120813181FC0197
:1014700031832083CE0183599F4FFC01808191816C
:101480000197F1F79E0123593F4FF9019183808322
:101490000E94670680E090E0A0E8BFE3898B9A8B0A
:1014A000AB8BBC8B8E01055A1F4F20E030E04AEF1A
:1014B00054E469897A898B899C890E94E632DC012F
:1014C000CB01F80180839183A283B383CE01855A37
:1014D0009F4F20E030E040E85FE3FC0160817181D4
:1014E000828193810E94F93088234CF4CE01815A85
:1014F0009F4F21E030E0FC013183208369C0CE01A1
:10150000855A9F4F20E03FEF4FE757E4FC01608191
:101510007181828193810E94E13218160CF046C0DD
:1015200020E030E040E251E469897A898B899C8926
:101530000E94E632DC01CB018E01015A1F4FBC0133
:10154000CD010E94AC31DC01CB01F8019183808395
:1015500024C0CE018F599F4F28EC30E0FC0131832D
:101560002083CE018F599F4FFC018081918101978B
:10157000F1F79E012F593F4FF90191838083CE01EE
:10158000815A9F4F9E01215A3F4FF901208131819D
:1015900021503109FC0131832083CE01815A9F4FB4
:1015A000FC0180819181892BA1F62CC08E01015A0A
:1015B0001F4FCE01855A9F4FFC016081718182814E
:1015C00093810E94AC31DC01CB01F80191838083CF
:1015D000CE018D599F4F9E01215A3F4FF901208125
:1015E0003181FC0131832083CE018D599F4FFC0155
:1015F000808191810197F1F79E012D593F4FF901AB
:1016000091838083CE0189559F4FFC01408160E02A
:1016100082E00E94AC0180E090E0A0E8BFE38D8B07
:101620009E8BAF8BB88F8E010F5A1F4F20E030E09A
:101630004AEF54E46D897E898F89988D0E94E63245
:10164000DC01CB01F80180839183A283B383CE01B7
:101650008F5A9F4F20E030E040E85FE3FC0160815B
:101660007181828193810E94F93088234CF4CE01EC
:101670008B5A9F4F21E030E0FC013183208369C009
:10168000CE018F5A9F4F20E03FEF4FE757E4FC0118
:1016900060817181828193810E94E13218160CF081
:1016A00046C020E030E040E251E46D897E898F89B8
:1016B000988D0E94E632DC01CB018E010B5A1F4F40
:1016C000BC01CD010E94AC31DC01CB01F80191835A
:1016D000808324C0CE01895A9F4F28EC30E0FC0162
:1016E00031832083CE01895A9F4FFC0180819181F3
:1016F0000197F1F79E01295A3F4FF90191838083A9
:10170000CE018B5A9F4F9E012B5A3F4FF9012081EA
:10171000318121503109FC0131832083CE018B5A64
:101720009F4FFC0180819181892BA1F62CC08E01F5
:101730000B5A1F4FCE018F5A9F4FFC016081718160
:10174000828193810E94AC31DC01CB01F80191834D
:101750008083CE01875A9F4F9E012B5A3F4FF9013C
:1017600020813181FC0131832083CE01875A9F4F34
:10177000FC01808191810197F1F79E01275A3F4F2B
:10178000F901918380830E94670680E090E0A0E8E1
:10179000BFE389839A83AB83BC832BEA3AEA4AE2AC
:1017A00050E469817A818B819C810E94E632DC0160
:1017B000CB018DAB9EABAFABB8AF89819A81AB81CA
:1017C000BC819C01AD01BC01CD010E948D30DC01CA
:1017D000CB0189AF9AAFABAFBCAF20E030E040E8BF
:1017E0005FE36DA97EA98FA998AD0E94F930882387
:1017F0001CF481E08DAF16C120E03FEF4FE757E4C6
:1018000069AD7AAD8BAD9CAD0E94E13218160CF03B
:10181000CBC020E030E04AE754E469817A818B81D3
:101820009C810E94FE30DC01CB019E01225C3F4F77
:10183000F90180839183A283B3838E010E5B1F4FD6
:10184000CE01CE9620E030E04AEF54E4FC01608106
:101850007181828193810E94E632DC01CB01F80123
:1018600080839183A283B383CE018E5B9F4F20E060
:1018700030E040E85FE3FC01608171818281938107
:101880000E94F93088234CF4CE018A5B9F4F21E0FF
:1018900030E0FC01318320836CC0CE018E5B9F4F12
:1018A00020E03FEF4FE757E4FC01608171818281C6
:1018B00093810E94E13218160CF049C0CE01CE96F9
:1018C00020E030E040E251E4FC01608171818281DE
:1018D00093810E94E632DC01CB018E010A5B1F4F2F
:1018E000BC01CD010E94AC31DC01CB01F801918338
:1018F000808324C0CE01885B9F4F28EC30E0FC0140
:1019000031832083CE01885B9F4FFC0180819181D0
:101910000197F1F79E01285B3F4FF9019183808386
:10192000CE018A5B9F4F9E012A5B3F4FF9012081C8
:10193000318121503109FC0131832083CE018A5B42
:101940009F4FFC0180819181892BA1F66BC08E0194
:101950000A5B1F4FCE018E5B9F4FFC01608171813E
:10196000828193810E94AC31DC01CB01F80191832B
:101970008083CE01865B9F4F9E012A5B3F4FF9011A
:1019800020813181FC0131832083CE01865B9F4F12
:10199000FC01808191810197F1F79E01265B3F4F09
:1019A000F901918380833EC020E030E04FE753E4AB
:1019B0006DA97EA98FA998AD0E94E13218164CF549
:1019C0008E01045B1F4F69AD7AAD8BAD9CAD0E945B
:1019D000AC31DC01CB01F80191838083CE01825BC5
:1019E0009F4F9E01245B3F4FF90120813181FC0113
:1019F00031832083CE01825B9F4FFC0180819181E6
:101A00000197F1F79E01225B3F4FF901918380839B
:101A10001CC06DA97EA98FA998AD0E94AC31DC01D4
:101A2000CB018DAFCE01805B9F4F2DADFC0120839C
:101A3000CE01805B9F4FFC018081282F2A95F1F712
:101A4000CE01805B9F4FFC012083CE0189559F4FC3
:101A5000FC018081813041F0CE0189559F4FFC010E
:101A60008081823009F08BC180E090E0A8ECB4E482
:101A700089879A87AB87BC878E0101591F4F2BEA54
:101A80003AEA4AE250E469857A858B859C850E9412
:101A9000E632DC01CB01F80180839183A283B3831A
:101AA0008E010D581F4F89859A85AB85BC859C0199
:101AB000AD01BC01CD010E948D30DC01CB01F801EC
:101AC00080839183A283B383CE0181599F4F20E00D
:101AD00030E040E85FE3FC016081718182819381A5
:101AE0000E94F93088233CF4CE0189589F4F21E0B1
:101AF000FC0120832CC1CE018D589F4F20E03FEF89
:101B00004FE757E4FC0160817181828193810E94DB
:101B1000E13218160CF0CDC020E030E04AE754E482
:101B200069857A858B859C850E94FE30DC01CB011E
:101B30009E0128583F4FF90180839183A283B3838C
:101B40008E0104581F4FCE0188589F4F20E030E08F
:101B50004AEF54E4FC0160817181828193810E948B
:101B6000E632DC01CB01F80180839183A283B38349
:101B7000CE0184589F4F20E030E040E85FE3FC0155
:101B800060817181828193810E94F93088234CF4B5
:101B9000CE0180589F4F21E030E0FC01318320834B
:101BA0006DC0CE0184589F4F20E03FEF4FE757E4D0
:101BB000FC0160817181828193810E94E13218165B
:101BC0000CF04AC0CE0188589F4F20E030E040E240
:101BD00051E4FC0160817181828193810E94E6322F
:101BE000DC01CB018E0100581F4FBC01CD010E94CA
:101BF000AC31DC01CB01F8019183808324C0CE019C
:101C00008E579F4F28EC30E0FC0131832083CE01BA
:101C10008E579F4FFC01808191810197F1F79E01C2
:101C20002E573F4FF90191838083CE0180589F4FFB
:101C30009E0120583F4FF901208131812150310907
:101C4000FC0131832083CE0180589F4FFC018081AD
:101C50009181892BA1F67BC08E0100581F4FCE01C8
:101C600084589F4FFC0160817181828193810E9421
:101C7000AC31DC01CB01F80191838083CE018C571C
:101C80009F4F9E0120583F4FF90120813181FC0177
:101C900031832083CE018C579F4FFC01808191813D
:101CA0000197F1F79E012C573F4FF90191838083F3
:101CB0004EC0CE0181599F4F20E030E04FE753E402
:101CC000FC0160817181828193810E94E13218164A
:101CD0006CF58E010A571F4FCE018D589F4FFC01A6
:101CE00060817181828193810E94AC31DC01CB01E2
:101CF000F80191838083CE0188579F4F9E012A5718
:101D00003F4FF90120813181FC0131832083CE01D5
:101D100088579F4FFC01808191810197F1F79E01C7
:101D200028573F4FF90191838083B4C18E01095830
:101D30001F4FCE0181599F4FFC01608171818281CB
:101D400093810E94AC31DC01CB01F8018083CE018C
:101D500086579F4F9E0129583F4FF9012081FC0172
:101D60002083CE0186579F4FFC018081282F2A9522
:101D7000F1F7CE0186579F4FFC0120838BC180E095
:101D800090E0A8E4B2E4898F9A8FAB8FBC8F8E016C
:101D900005571F4F2BEA3AEA4AE250E4698D7A8DE3
:101DA0008B8D9C8D0E94E632DC01CB01F801808393
:101DB0009183A283B3838E0101571F4F898D9A8D22
:101DC000AB8DBC8D9C01AD01BC01CD010E948D305D
:101DD000DC01CB01F80180839183A283B383CE0120
:101DE00085579F4F20E030E040E85FE3FC016081D1
:101DF0007181828193810E94F93088233CF4CE0165
:101E00008D569F4F21E0FC0120832CC1CE018157CC
:101E10009F4F20E03FEF4FE757E4FC016081718165
:101E2000828193810E94E13218160CF0CDC020E02F
:101E300030E04AE754E4698D7A8D8B8D9C8D0E9449
:101E4000FE30DC01CB019E012C563F4FF90180830F
:101E50009183A283B3838E0108561F4FCE018C5607
:101E60009F4F20E030E04AEF54E4FC016081718133
:101E7000828193810E94E632DC01CB01F8018083EC
:101E80009183A283B383CE0188569F4F20E030E038
:101E900040E85FE3FC0160817181828193810E944F
:101EA000F93088234CF4CE0184569F4F21E030E076
:101EB000FC01318320836DC0CE0188569F4F20E006
:101EC0003FEF4FE757E4FC0160817181828193818C
:101ED0000E94E13218160CF04AC0CE018C569F4F7A
:101EE00020E030E040E251E4FC01608171818281B8
:101EF00093810E94E632DC01CB018E0104561F4F14
:101F0000BC01CD010E94AC31DC01CB01F801918311
:101F1000808324C0CE0182569F4F28EC30E0FC0124
:101F200031832083CE0182569F4FFC0180819181B5
:101F30000197F1F79E0122563F4FF901918380836B
:101F4000CE0184569F4F9E0124563F4FF9012081B8
:101F5000318121503109FC0131832083CE01845627
:101F60009F4FFC0180819181892BA1F67BC08E015E
:101F700004561F4FCE0188569F4FFC01608171812E
:101F8000828193810E94AC31DC01CB01F801918305
:101F90008083CE0180569F4F9E0124563F4FF9010A
:101FA00020813181FC0131832083CE0180569F4FF7
:101FB000FC01808191810197F1F79E0120563F4FEE
:101FC000F901918380834EC0CE0185579F4F20E059
:101FD00030E04FE753E4FC0160817181828193819D
:101FE0000E94E13218166CF58E010E551F4FCE017E
:101FF00081579F4FFC0160817181828193810E9492
:10200000AC31DC01CB01F80191838083CE018C558A
:102010009F4F9E012E553F4FF90120813181FC01D8
:1020200031832083CE018C559F4FFC0180819181AB
:102030000197F1F79E012C553F4FF9019183808361
:1020400029C08E010D561F4FCE0185579F4FFC01B1
:1020500060817181828193810E94AC31DC01CB016E
:10206000F8018083CE018A559F4F9E012D563F4F28
:10207000F9012081FC012083CE018A559F4FFC018C
:102080008081282F2A95F1F7CE018A559F4FFC01B8
:10209000208300C00000C955DF4F0FB6F894DEBFA3
:1020A0000FBECDBFDF91CF911F910F910895CF93B8
:1020B000DF93CDB7DEB7A1970FB6F894DEBF0FBEA2
:1020C000CDBF89A360E085E10E946A036FEF86E1DE
:1020D0000E946A0389A182958F70482F60E082E098
:1020E0000E94AC010E94670649A160E082E00E9464
:1020F000AC010E94670680E090E0A0E8BFE389831E
:102100009A83AB83BC832BEA3AEA4AE250E46981C2
:102110007A818B819C810E94E632DC01CB018D8328
:102120009E83AF83B88789819A81AB81BC819C01F2
:10213000AD01BC01CD010E948D30DC01CB0189874E
:102140009A87AB87BC8720E030E040E85FE36D8191
:102150007E818F8198850E94F93088231CF481E06C
:102160008D87B2C020E03FEF4FE757E469857A855D
:102170008B859C850E94E13218160CF07BC020E014
:1021800030E04AE754E469817A818B819C810E9426
:10219000FE30DC01CB018E879F87A88BB98B20E0B6
:1021A00030E04AEF54E46E857F85888999890E94E2
:1021B000E632DC01CB018A8B9B8BAC8BBD8B20E0A4
:1021C00030E040E85FE36A897B898C899D890E94C1
:1021D000F93088232CF481E090E09F8B8E8B3FC0F8
:1021E00020E03FEF4FE757E46A897B898C899D891E
:1021F0000E94E13218164CF520E030E040E251E454
:102200006E857F85888999890E94E632DC01CB0141
:10221000BC01CD010E94AC31DC01CB019F8B8E8BC8
:102220000FC088EC90E0998F888F888D998D0197E9
:10223000F1F7998F888F8E899F8901979F8B8E8B5D
:102240008E899F89892B69F73FC06A897B898C8930
:102250009D890E94AC31DC01CB019F8B8E8B8E89D6
:102260009F899B8F8A8F8A8D9B8D0197F1F79B8F1A
:102270008A8F2AC020E030E04FE753E46D817E81F1
:102280008F8198850E94E1321816ACF469857A85B1
:102290008B859C850E94AC31DC01CB019D8F8C8F9E
:1022A0008C8D9D8D9F8F8E8F8E8D9F8D0197F1F7D9
:1022B0009F8F8E8F0FC06D817E818F8198850E9448
:1022C000AC31DC01CB018D878D8588A388A18A95EF
:1022D000F1F788A30000A1960FB6F894DEBF0FBEF9
:1022E000CDBFDF91CF910895CF93DF9300D0CDB7CD
:1022F000DEB789836A838981813029F48A81815894
:102300000E94700807C08981823021F48A8181543B
:102310000E94700800000F900F90DF91CF910895F8
:10232000CF93DF93CDB7DEB781E00E947008000045
:10233000DF91CF910895CF93DF931F92CDB7DEB792
:1023400089838981882F90E08930910531F18A3025
:1023500091052CF4009779F1089751F033C08D3036
:102360009105A1F08C359105F9F00A9741F02AC04A
:102370008CE50E94571082E60E94571032C08CE50F
:102380000E9457108EE60E9457102BC08CE50E94C9
:10239000571082E70E94571024C08CE50E94571006
:1023A00084E70E9457101DC08CE50E9457108CE5F1
:1023B0000E94571016C08CE50E94571080E30E94BF
:1023C00057100FC08981882F90E00E94C334892B59
:1023D00021F484E20E94571003C089810E945710A3
:1023E000000000000F90DF91CF910895CF93DF930D
:1023F000CDB7DEB780E10E94700880E20E949B1199
:1024000080E10E9470080000DF91CF910895CF9382
:10241000DF9300D000D01F92CDB7DEB79C838B83B3
:102420006D831A8219828D81880F880F880F8064CE
:102430000E9470088B819C819A8389830BC089815B
:102440009A81FC0180810E949B1189819A81019669
:102450009A83898329813A818B819C81A901481BB8
:10246000590BCA0107975CF380E00E949B1180E83A
:102470000E94700800000F900F900F900F900F9027
:10248000DF91CF910895CF93DF9300D000D0CDB7E7
:10249000DEB79C838B838B819C819A8389830BC05D
:1024A00089819A81FC0180810E949B1189819A8196
:1024B00001969A83898389819A81FC01808188238E
:1024C00079F700000F900F900F900F90DF91CF9150
:1024D0000895CF93DF9300D0CDB7DEB79A83898379
:1024E0000BC089819A81FC0180810E949B118981A6
:1024F0009A8101969A83898389819A81FC018081DE
:10250000882331F089819A81FC018081803249F7EA
:1025100000000F900F90DF91CF910895CF93DF933C
:1025200000D01F92CDB7DEB79B838A83198208C083
:1025300089818F5F89838A819B8101969B838A83AE
:102540008A819B81FC018081882331F08A819B8173
:10255000FC018081803261F789810F900F900F908C
:10256000DF91CF910895CF93DF93CDB7DEB76A9710
:102570000FB6F894DEBF0FBECDBF9E8B8D8B4F8BF9
:10258000588F698F7A8F81E0898381E08A838D8972
:102590009E899C838B83D9C08B819C81FC01808127
:1025A000803231F08B819C81FC018081893079F40B
:1025B0008B819C819C012F5F3F4F3C832B83FC01CF
:1025C00080810E949B118A818F5F8A832EC08B81BC
:1025D0009C810E948E128E8391E18A81F92FF81BD3
:1025E0008F2F8D839D818E81981770F406C080E2B5
:1025F0000E949B118A818F5F8A838D819FEF980F44
:102600009D838823A1F711C08B819C810E94691250
:102610008E81882F90E02B813C81820F931F9C83B9
:102620008B839A818E81890F8A838A81813108F414
:102630008CC08981813049F482E0898381E08A837A
:102640006A8189810E94741180C08981823009F079
:102650007CC06F89788D898D9A8D0E94E131DC0173
:10266000CB018F839887A987BA8720E030E04AEFB3
:1026700054E46F81788589859A850E94E632DC0171
:10268000CB018B879C87AD87BE8720E030E040E898
:102690005FE36B857C858D859E850E94F93088235C
:1026A0002CF481E090E0988B8F873FC020E03FEFD3
:1026B0004FE757E46B857C858D859E850E94E132CE
:1026C00018164CF520E030E040E251E46F81788547
:1026D00089859A850E94E632DC01CB01BC01CD01DF
:1026E0000E94AC31DC01CB01988B8F870FC088EC46
:1026F00090E09A8B898B89899A890197F1F79A8B57
:10270000898B8F8598890197988B8F878F8598897A
:10271000892B69F714C06B857C858D859E850E9409
:10272000AC31DC01CB01988B8F878F8598899C8B8E
:102730008B8B8B899C890197F1F79C8B8B8B81E02C
:102740008A8381E089830E9490118B819C81FC01A6
:102750008081882309F020CF00006A960FB6F89494
:10276000DEBF0FBECDBFDF91CF9108952F923F9274
:102770004F925F926F927F928F929F92AF92BF9291
:10278000CF92DF92EF92FF920F931F93CF93DF933D
:10279000CDB7DEB7A1970FB6F894DEBF0FBECDBFA1
:1027A0002A873B874C875D876E877F87888B998BCD
:1027B00081E089831A821B821C821D821E821F82F5
:1027C0001886AA84BB84CC84DD84EE84FF840889C7
:1027D00019892A2D3B2D4C2D5D2D6E2D7F2D802F9F
:1027E000912FA0E00E945D3009F0D8C080E30E94E4
:1027F0009B115FC129813A814B815C816D817E8112
:102800008F819885822E932EA42EB52EC62ED72E7C
:10281000E82EF92E282D392D4A2D5B2D6C2D7D2D7E
:102820008E2D9F2D01E00E941D302A8B3B8B4C8BFF
:102830005D8B6E8B7F8B888F998F8A889B88AC8805
:10284000BD88CE88DF88E88CF98C282D392D4A2D5B
:102850005B2D6C2D7D2D8E2D9F2D02E00E941D3055
:102860002A8F3B8F4C8F5D8F6E8F7F8F88A399A3AC
:10287000282D392D4A2D5B2D6C2D7D2D8E2D9F2DD4
:10288000AA8CBB8CCC8CDD8CEE8CFF8C08A119A1A2
:102890000E94543029833A834B835C836D837E830B
:1028A0008F8398872A843B844C845D846E847F84E4
:1028B000888899880F2EFAE0AF2EF02DB12CC12C0C
:1028C000D12CE12CF12C00E010E0222D332D442DF1
:1028D000552D662D772D882D992D0E94772F222E2C
:1028E000332E442E552E662E772E882E992EA22C0E
:1028F000B32CC42CD52CE62CF72C082D192D2A2D01
:102900003B2D4C2D5D2D6E2D7F2D802F912FA9807D
:10291000BA80CB80DC80ED80FE800F8118850E941C
:102920005430A22EB32EC42ED52EE62EF72E082F0D
:10293000192FA982BA82CB82DC82ED82FE820F83BC
:1029400018872A843B844C845D846E847F848888C5
:1029500099880F2EFAE0AF2EF02DB12CC12CD12C7E
:10296000E12CF12C00E010E0222D332D442D552DCB
:10297000662D772D882D992D0E94792FA22EB32EAA
:10298000C42ED52EE62EF72E082F192FAA86BB8629
:10299000CC86DD86EE86FF86088B198BAA84BB84E5
:1029A000CC84DD84EE84FF84088919892A2D3B2D8F
:1029B0004C2D5D2D6E2D7F2D802F912FA0E00E943C
:1029C0005D3009F017CF60C029803A804B805C8071
:1029D0006D807E808F8098840F2EFAE0AF2EF02DD0
:1029E000B12CC12CD12CE12CF12C00E010E0222DD7
:1029F000332D442D552D662D772D882D992D0E9430
:102A0000772FA22EB32EC42ED52EE62EF72E082F0A
:102A1000192F2A2D3B2D4C2D5D2D6E2D7F2D802FB6
:102A2000912F822F805D898789850E949B11298043
:102A30003A804B805C806D807E808F8098840F2EE2
:102A4000FAE0AF2EF02DB12CC12CD12CE12CF12CC1
:102A500000E010E0222D332D442D552D662D772DCD
:102A6000882D992D0E94792FA22EB32EC42ED52EFB
:102A7000E62EF72E082F192FA982BA82CB82DC828C
:102A8000ED82FE820F831887A980BA80CB80DC801C
:102A9000ED80FE800F8118852A2D3B2D4C2D5D2D5C
:102AA0006E2D7F2D802F912FA1E00E945D3009F0C7
:102AB0008BCFA1960FB6F894DEBF0FBECDBFDF91CE
:102AC000CF911F910F91FF90EF90DF90CF90BF902B
:102AD000AF909F908F907F906F905F904F903F90BE
:102AE0002F9008952F923F924F925F926F927F9214
:102AF0008F929F92AF92BF92CF92DF92EF92FF920E
:102B00000F931F93CF93DF93CDB7DEB764970FB6C4
:102B1000F894DEBF0FBECDBF2B873C874D875E8705
:102B20006F87788B898B9A8B0B8BEC8A8B8589834B
:102B30008C858A838D858B838E858C838F858D8311
:102B400088898E8389898F838A89888719861A86DE
:102B500029803A804B805C806D807E808F80988455
:102B60000F2EFAE0AF2EF02DB12CC12CD12CE12C80
:102B7000F12C00E010E0222D332D442D552D662D33
:102B8000772D882D992D0E94792FA22EB32EC42E39
:102B9000D52EE62EF72E082F192FA982BA82CB82C6
:102BA000DC82ED82FE820F83188789858F5F89879B
:102BB000A980BA80CB80DC80ED80FE800F811885F3
:102BC0002A2D3B2D4C2D5D2D6E2D7F2D802F912F8D
:102BD000A0E00E945D3009F0BBCF8C89882381F48E
:102BE0009B898985292F281B822F8A8706C080E32D
:102BF0000E949B118A8581508A878A858823B9F72C
:102C0000AB84BC84CD84DE84EF84F88809891A897A
:102C10002A2D3B2D4C2D5D2D6E2D7F2D802F912F3C
:102C20000E94B6138C89813081F49B898985292F74
:102C3000281B822F8A8706C080E20E949B118A850A
:102C400081508A878A858823B9F7000064960FB679
:102C5000F894DEBF0FBECDBFDF91CF911F910F91D2
:102C6000FF90EF90DF90CF90BF90AF909F908F90AC
:102C70007F906F905F904F903F902F9008952F928C
:102C80003F924F925F926F927F928F929F92AF92FC
:102C9000BF92CF92DF92EF92FF920F931F93CF9349
:102CA000DF93CDB7DEB7E2970FB6F894DEBF0FBE65
:102CB000CDBF2A8F3B8F4C8F5D8F6E8F7F8F88A308
:102CC00099A30AA381E089871A861B861C861D8624
:102CD0001E861F86188A8AA1898B5BC029853A8542
:102CE0004B855C856D857E858F859889822E932E98
:102CF000A42EB52EC62ED72EE82EF92E282D392D2E
:102D00004A2D5B2D6C2D7D2D8E2D9F2D01E00E9477
:102D10001D302BA33CA34DA35EA36FA378A789A767
:102D20009AA78BA09CA0ADA0BEA0CFA0D8A4E9A4D8
:102D3000FAA4282D392D4A2D5B2D6C2D7D2D8E2D3D
:102D40009F2D02E00E941D302BA73CA74DA75EA738
:102D50006FA778AB89AB9AAB282D392D4A2D5B2D07
:102D60006C2D7D2D8E2D9F2DABA4BCA4CDA4DEA4F7
:102D7000EFA4F8A809A91AA90E94543029873A8714
:102D80004B875C876D877E878F87988B8989815079
:102D9000898B8989882309F0A1CFA984BA84CB843F
:102DA000DC84ED84FE840F8518892A8D3B8D4C8D43
:102DB0005D8D6E8D7F8D88A199A10E94792FA22EA5
:102DC000B32EC42ED52EE62EF72E082F192FAA8A41
:102DD000BB8ACC8ADD8AEE8AFF8A088F198FAA887F
:102DE000BB88CC88DD88EE88FF88088D198D2A2D58
:102DF0003B2D4C2D5D2D6E2D7F2D802F912F0E9410
:102E0000B6132A8C3B8C4C8C5D8C6E8C7F8C88A08E
:102E100099A0A984BA84CB84DC84ED84FE840F85D8
:102E20001889222D332D442D552D662D772D882D73
:102E3000992D0E94772FA22EB32EC42ED52EE62ECA
:102E4000F72E082F192FA982BA82CB82DC82ED825D
:102E5000FE820F831887A980BA80CB80DC80ED804A
:102E6000FE800F8118852A2D3B2D4C2D5D2D6E2D5A
:102E70007F2D802F912FA0E00E945D3009F47DC04E
:102E80008EE20E949B112DC029803A804B805C808D
:102E90006D807E808F8098840F2EFAE0AF2EF02D0B
:102EA000B12CC12CD12CE12CF12C00E010E0222D12
:102EB000332D442D552D662D772D882D992D0E946B
:102EC000792FA22EB32EC42ED52EE62EF72E082F44
:102ED000192FA982BA82CB82DC82ED82FE820F8317
:102EE000188729803A804B805C806D807E808F803F
:102EF00098840F2EFAE0AF2EF02DB12CC12CD12CDE
:102F0000E12CF12C00E010E0222D332D442D552D25
:102F1000662D772D882D992D0E94772F222E332E06
:102F2000442E552E662E772E882E992EA22CB32C49
:102F3000C42CD52CE62CF72C082D192D2A2D3B2D31
:102F40004C2D5D2D6E2D7F2D802F912FA0E00E94A6
:102F50005D3009F499CFA980BA80CB80DC80ED8008
:102F6000FE800F8118852A2D3B2D4C2D5D2D6E2D59
:102F70007F2D802F912F0E94B6130000E2960FB68E
:102F8000F894DEBF0FBECDBFDF91CF911F910F919F
:102F9000FF90EF90DF90CF90BF90AF909F908F9079
:102FA0007F906F905F904F903F902F9008952F9259
:102FB0003F924F925F926F927F928F929F92AF92C9
:102FC000BF92CF92DF92EF92FF920F931F93CF9316
:102FD000DF93CDB7DEB7E8970FB6F894DEBF0FBE2C
:102FE000CDBF6D8B7E8B8F8B988F81E089871A8602
:102FF0001B861C861D861E861F86188A1A8A198AB9
:103000006D897E898F89988D0E947031A22EB32E92
:10301000C42ED52EE62EF72E082F192FA982BA829C
:10302000CB82DC82ED82FE820F83188711E020E0E4
:1030300030E0A9016D897E898F89988D0E94F930D1
:1030400088230CF010E01A8B8A89882349F02FEF2F
:103050003FEF4FEF5FEF6FEF7FEF8FEF9FEF08C016
:1030600021E030E040E050E060E070E080E090E09F
:10307000A22EB32EC42ED52EE62EF72E082F192FF2
:1030800029813A814B815C816D817E818F81988518
:103090000E94ED2EA22EB32EC42ED52EE62EF72E94
:1030A000082F192FA982BA82CB82DC82ED82FE82A0
:1030B0000F8318878A89882329F080E090E0A0E8B0
:1030C000BFEB04C080E090E0A0E8BFE39C01AD014D
:1030D0006D897E898F89988D0E94E632DC01CB0153
:1030E0008D8B9E8BAF8BB88F20E030E040E251E4B7
:1030F0006D897E898F89988D0E94E632DC01CB0133
:103100002C013D0129813A814B815C816D817E8159
:103110008F819885822E932EA42EB52EC62ED72E63
:10312000E82EF92E282D392D4A2D5B2D6C2D7D2D65
:103130008E2D9F2D01E00E941D30298F3A8F4B8FDD
:103140005C8F6D8F7E8F8F8F98A3898C9A8CAB8CC0
:10315000BC8CCD8CDE8CEF8CF8A0282D392D4A2D1F
:103160005B2D6C2D7D2D8E2D9F2D02E00E941D303C
:1031700029A33AA34BA35CA36DA37EA38FA398A717
:10318000282D392D4A2D5B2D6C2D7D2D8E2D9F2DBB
:10319000A9A0BAA0CBA0DCA0EDA0FEA00FA118A50D
:1031A0000E945430A22EB32EC42ED52EE62EF72E1A
:1031B000082F192F2A2D3B2D4C2D5D2D6E2D7F2D87
:1031C000802F912F0E94DB31DC01CB019C01AD01EE
:1031D000C301B2010E948C30DC01CB01BC01CD01E6
:1031E0000E94AC31DC01CB018B8B8A89882331F0C2
:1031F0008DE20E949B1189898F5F898BA980BA809B
:10320000CB80DC80ED80FE800F8118852A2D3B2D40
:103210004C2D5D2D6E2D7F2D802F912FA0E00E94D3
:103220005D3009F0E0C080E30E949B1189898F5FC7
:10323000898B8B89882309F0D6C0898973C1298538
:103240003A854B855C856D857E858F859889822E34
:10325000932EA42EB52EC62ED72EE82EF92E282D6D
:10326000392D4A2D5B2D6C2D7D2D8E2D9F2D01E04E
:103270000E941D3029A73AA74BA75CA76DA77EA780
:103280008FA798AB89A49AA4ABA4BCA4CDA4DEA4B8
:10329000EFA4F8A8282D392D4A2D5B2D6C2D7D2DFE
:1032A0008E2D9F2D02E00E941D3029AB3AAB4BAB17
:1032B0005CAB6DAB7EAB8FAB98AF282D392D4A2D13
:1032C0005B2D6C2D7D2D8E2D9F2DA9A8BAA8CBA886
:1032D000DCA8EDA8FEA80FA918AD0E9454302987DC
:1032E0003A874B875C876D877E878F87988B29808D
:1032F0003A804B805C806D807E808F8098840F2E1A
:10330000FAE0AF2EF02DB12CC12CD12CE12CF12CF8
:1033100000E010E0222D332D442D552D662D772D04
:10332000882D992D0E94462F222E332E442E552E65
:10333000662E772E882E992EA22CB32CC42CD52C39
:10334000E62CF72C082D192D2A2D3B2D4C2D5D2D0B
:103350006E2D7F2D802F912FA984BA84CB84DC849D
:10336000ED84FE840F8518890E945430A22EB32E5E
:10337000C42ED52EE62EF72E082F192FA986BA8631
:10338000CB86DC86ED86FE860F87188B29803A80F7
:103390004B805C806D807E808F8098840F2EFAE059
:1033A000AF2EF02DB12CC12CD12CE12CF12C00E052
:1033B00010E0222D332D442D552D662D772D882D8F
:1033C000992D0E94482FA22EB32EC42ED52EE62E64
:1033D000F72E082F192FA982BA82CB82DC82ED82C8
:1033E000FE820F831887A980BA80CB80DC80ED80B5
:1033F000FE800F8118852A2D3B2D4C2D5D2D6E2DC5
:103400007F2D802F912FA0E00E945D3009F017CF13
:1034100063C029843A844B845C846D847E848F8469
:1034200098880F2EFAE0AF2EF02DB12CC12CD12CA4
:10343000E12CF12C00E010E0222D332D442D552DF0
:10344000662D772D882D992D0E94462FA22EB32E02
:10345000C42ED52EE62EF72E082F192F2A2D3B2D00
:103460004C2D5D2D6E2D7F2D802F912F822F805D15
:103470008C8B8C890E949B1189898F5F898B298411
:103480003A844B845C846D847E848F8498880F2E6C
:10349000FAE0AF2EF02DB12CC12CD12CE12CF12C67
:1034A00000E010E0222D332D442D552D662D772D73
:1034B000882D992D0E94482FA22EB32EC42ED52ED2
:1034C000E62EF72E082F192FA986BA86CB86DC8622
:1034D000ED86FE860F87188BA984BA84CB84DC84A2
:1034E000ED84FE840F8518892A2D3B2D4C2D5D2DF2
:1034F0006E2D7F2D802F912FA1E00E945D3009F06D
:1035000088CF8B89882369F08EE20E949B1189897C
:103510008F5F898B8B89805D0E949B1189898F5F6A
:10352000898B8989E8960FB6F894DEBF0FBECDBFB0
:10353000DF91CF911F910F91FF90EF90DF90CF908F
:10354000BF90AF909F908F907F906F905F904F90C3
:103550003F902F9008952F923F924F925F926F92DB
:103560007F928F929F92AF92BF92CF92DF92EF9213
:10357000FF920F931F93CF93DF93CDB7DEB7A4973E
:103580000FB6F894DEBF0FBECDBF2B8F3C8F4D8F93
:103590005E8F6F8F78A389A39AA31CA30BA31982B4
:1035A00080E1E1E9F1E0DE011B9601900D928A9540
:1035B000E1F7AB8CBC8CCD8CDE8CEF8CF8A009A134
:1035C0001AA12A2D3B2D4C2D5D2D6E2D7F2D802F88
:1035D000912FA0E00E945D3099F48BA19CA19C01E9
:1035E0002F5F3F4F3CA32BA320E3FC012083898165
:1035F0008F5F89838BA19CA1FC0110828981F7C018
:1036000081E08A831B821C821D821E821F82188693
:10361000198680C02A813B814C815D816E817F81CA
:103620008885998504E00E941D30A22EB32EC42EF9
:10363000D52EE62EF72E082F192FAA82BB82CC8218
:10364000DD82EE82FF82088719878B8DF82FFF704D
:103650002F2E8C8D982F9070392E8D8DE82FE07045
:103660004E2E8E8DF82FF0705F2E8F8D982F9070CC
:10367000692E88A1E82FE0707E2E89A1F82FF070C6
:103680008F2E8AA1982F9070992E222D332D442DA4
:10369000552D662D772D882D992DAA80BB80CC8045
:1036A000DD80EE80FF80088519850E945430A22EAF
:1036B000B32EC42ED52EE62EF72E082F192FAA8250
:1036C000BB82CC82DD82EE82FF8208871987AB8CB9
:1036D000BC8CCD8CDE8CEF8CF8A009A11AA12A2D10
:1036E0003B2D4C2D5D2D6E2D7F2D802F912F04E0D5
:1036F0000E943830A22EB32EC42ED52EE62EF72EE1
:10370000082F192FAB8EBC8ECD8EDE8EEF8EF8A2D9
:1037100009A31AA3AB8CBC8CCD8CDE8CEF8CF8A0EB
:1037200009A11AA12A2D3B2D4C2D5D2D6E2D7F2D2B
:10373000802F912FA0E00E945D3009F06BCF3CC03C
:103740008A818F708A878BA19CA19C012F5F3F4F3C
:103750003CA32BA32A85222F30E0AE01455F5F4FAB
:10376000240F351FF9012081FC01208389818F5F9F
:103770008983AA80BB80CC80DD80EE80FF800885B5
:1037800019852A2D3B2D4C2D5D2D6E2D7F2D802FE3
:10379000912F04E00E943830A22EB32EC42ED52ED5
:1037A000E62EF72E082F192FAA82BB82CC82DD824B
:1037B000EE82FF8208871987AA80BB80CC80DD80DB
:1037C000EE80FF80088519852A2D3B2D4C2D5D2D1F
:1037D0006E2D7F2D802F912FA1E00E945D3011F082
:1037E00008F0AECF8BA19CA1FC0110828981A49628
:1037F0000FB6F894DEBF0FBECDBFDF91CF911F9102
:103800000F91FF90EF90DF90CF90BF90AF909F907F
:103810008F907F906F905F904F903F902F90089582
:103820008F929F92AF92BF92CF92DF92EF92FF92D0
:103830000F931F93CF93DF93CDB7DEB76C970FB67F
:10384000F894DEBF0FBECDBF2D8B3E8B4F8B588FB4
:10385000698F7A8F8B8F9C8F8D889E88AF88B88C6C
:10386000C98CDA8CEB8CFC8CCE0101968C01282D56
:10387000392D4A2D5B2D6C2D7D2D8E2D9F2D0E9477
:10388000AB1ACE0101960E94431200006C960FB64F
:10389000F894DEBF0FBECDBFDF91CF911F910F9186
:1038A000FF90EF90DF90CF90BF90AF909F908F9060
:1038B0000895CF93DF931F92CDB7DEB789836FEF63
:1038C00089810E94490000000F90DF91CF910895F7
:1038D000CF93DF931F92CDB7DEB789836FEF8981D6
:1038E0000E94700200000F90DF91CF910895CF9356
:1038F000DF93CDB7DEB7A1970FB6F894DEBF0FBE4A
:10390000CDBF8D8F4E8F5F8F68A379A36FEF8D8DA5
:103910000E9480006E8D7F8D88A199A10E94E13167
:10392000DC01CB0189839A83AB83BC8320E030E048
:103930004AEF54E469817A818B819C810E94E6324E
:10394000DC01CB018B8B9C8BAD8BBE8B20E030E000
:1039500040E85FE36B897C898D899E890E94F930FC
:1039600088232CF481E090E0988F8F8B3FC020E07B
:103970003FEF4FE757E46B897C898D899E890E94D0
:10398000E13218164CF520E030E040E251E4698164
:103990007A818B819C810E94E632DC01CB01BC01E3
:1039A000CD010E94AC31DC01CB01988F8F8B0FC011
:1039B00088EC90E09A8F898F898D9A8D0197F1F725
:1039C0009A8F898F8F89988D0197988F8F8B8F8988
:1039D000988D892B69F714C06B897C898D899E89A4
:1039E0000E94AC31DC01CB01988F8F8B8F89988D31
:1039F0009C8F8B8F8B8D9C8D0197F1F79C8F8B8F7C
:103A000060E08D8D0E946A036E8D7F8D88A199A1E3
:103A10000E94E131DC01CB018D839E83AF83B887A7
:103A200020E030E04AEF54E46D817E818F819885FB
:103A30000E94E632DC01CB0189879A87AB87BC877D
:103A400020E030E040E85FE369857A858B859C85DE
:103A50000E94F93088232CF481E090E09E878D87C6
:103A60003FC020E03FEF4FE757E469857A858B85BB
:103A70009C850E94E13218164CF520E030E040E2CF
:103A800051E46D817E818F8198850E94E632DC0150
:103A9000CB01BC01CD010E94AC31DC01CB019E8782
:103AA0008D870FC088EC90E0988B8F878F859889E1
:103AB0000197F1F7988B8F878D859E8501979E875B
:103AC0008D878D859E85892B69F714C069857A85D8
:103AD0008B859C850E94AC31DC01CB019E878D8754
:103AE0008D859E859A8B898B89899A890197F1F7B3
:103AF0009A8B898B0000A1960FB6F894DEBF0FBE9B
:103B0000CDBFDF91CF910895CF93DF93CDB7DEB7CF
:103B1000A1970FB6F894DEBF0FBECDBF8D8F4E8F2D
:103B20005F8F68A379A36FEF8D8D0E946A036E8DFE
:103B30007F8D88A199A10E94E131DC01CB018983AD
:103B40009A83AB83BC8320E030E04AEF54E4698180
:103B50007A818B819C810E94E632DC01CB018B8BC8
:103B60009C8BAD8BBE8B20E030E040E85FE36B893F
:103B70007C898D899E890E94F93088232CF481E00C
:103B800090E0988F8F8B3FC020E03FEF4FE757E4E6
:103B90006B897C898D899E890E94E13218164CF5CB
:103BA00020E030E040E251E469817A818B819C81A0
:103BB0000E94E632DC01CB01BC01CD010E94AC3198
:103BC000DC01CB01988F8F8B0FC088EC90E09A8F2F
:103BD000898F898D9A8D0197F1F79A8F898F8F89B7
:103BE000988D0197988F8F8B8F89988D892B69F786
:103BF00014C06B897C898D899E890E94AC31DC015F
:103C0000CB01988F8F8B8F89988D9C8F8B8F8B8D0D
:103C10009C8D0197F1F79C8F8B8F60E08D8D0E94BA
:103C20006A036E8D7F8D88A199A10E94E131DC012C
:103C3000CB018D839E83AF83B88720E030E04AEFCD
:103C400054E46D817E818F8198850E94E632DC018B
:103C5000CB0189879A87AB87BC8720E030E040E8BA
:103C60005FE369857A858B859C850E94F93088237E
:103C70002CF481E090E09E878D873FC020E03FEFED
:103C80004FE757E469857A858B859C850E94E132F0
:103C900018164CF520E030E040E251E46D817E8161
:103CA0008F8198850E94E632DC01CB01BC01CD01F9
:103CB0000E94AC31DC01CB019E878D870FC088EC60
:103CC00090E0988B8F878F8598890197F1F7988B73
:103CD0008F878D859E8501979E878D878D859E8593
:103CE000892B69F714C069857A858B859C850E942C
:103CF000AC31DC01CB019E878D878D859E859A8BAB
:103D0000898B89899A890197F1F79A8B898B0000B1
:103D1000A1960FB6F894DEBF0FBECDBFDF91CF9155
:103D20000895CF93DF931F92CDB7DEB789836FEFEE
:103D300089810E946A0300000F90DF91CF9108955E
:103D4000CF93DF931F92CDB7DEB7898360E089817F
:103D50000E946A0300000F90DF91CF910895CF93E6
:103D6000DF931F92CDB7DEB7898389810E94D0048B
:103D700000000F90DF91CF910895CF92DF92EF92E4
:103D8000FF92CF93DF93CDB7DEB766970FB6F89467
:103D9000DEBF0FBECDBF6F87788B898B9A8B5C8B14
:103DA0004B8B3E8B2D8B198289818A838A81882F48
:103DB00090E0A0E0B0E08B839C83AD83BE838B81D9
:103DC0009C81AD81BE818F839887A987BA878F81B7
:103DD00098859C878B878B859C859E878D878F8513
:103DE0009889A989BA8980369940A105B10590F0D2
:103DF0006F85788989899A890E94E131DC01CB013C
:103E000020E034E244E759E4BC01CD010E94E132F4
:103E1000181614F480E06BC16F85788989899A89B6
:103E20000E94E131DC01CB0120E030E040E851E4C8
:103E3000BC01CD010E94E632DC01CB019C01AD0149
:103E400060E074E284EF9AE40E94FE30DC01CB0172
:103E500020E030E040E85FE3BC01CD010E948C30FF
:103E6000DC01CB01BC01CD010E945333DC01CB014D
:103E7000BC01CD010E94AC31DC01CB019E878D8756
:103E80006F85788989899A890E94E131DC01CB01AB
:103E900020E030E040E051E4BC01CD010E94E63278
:103EA000DC01CB019C01AD0160E074E284EF9AE497
:103EB0000E94FE30DC01CB0120E030E040E85FE30F
:103EC000BC01CD010E948C30DC01CB01BC01CD01D5
:103ED0000E945333DC01CB01BC01CD010E94AC3107
:103EE000DC01CB019C878B878D859E85CC01A0E072
:103EF000B0E0BC01CD010E94E131DC01CB0120E04A
:103F000030E040E85FE3BC01CD010E948D30DC0170
:103F1000CB0120E030E040E851E4BC01CD010E943B
:103F2000E632DC01CB019C01AD0160E074E284EF7C
:103F30009AE40E94FE30DC01CB01BC01CD010E945D
:103F40005333DC01CB01BC01CD010E94AC31DC015B
:103F5000CB018F839887A987BA878B859C85CC01F5
:103F6000A0E0B0E0BC01CD010E94E131DC01CB0159
:103F700020E030E040E85FE3BC01CD010E948D30DD
:103F8000DC01CB0120E030E040E051E4BC01CD0198
:103F90000E94E632DC01CB019C01AD0160E074E2DD
:103FA00084EF9AE40E94FE30DC01CB01BC01CD011C
:103FB0000E945333DC01CB01BC01CD010E94AC3126
:103FC000DC01CB018B839C83AD83BE836F817885BD
:103FD00089859A850E94E1316B017C016F85788922
:103FE00089899A890E94E131DC01CB019C01AD01F4
:103FF000C701B6010E94FE30DC01CB0120E030E0B9
:1040000040E85FE3BC01CD010E948C30DC01CB01B4
:1040100020E030E04AE754E4BC01CD010E94E632E2
:10402000DC01CB01BC01CD010E945333DC01CB018B
:10403000BF77BC01CD010E94AC31DC01CB018A838A
:104040006B817C818D819E810E94E1316B017C01BD
:104050006F85788989899A890E94E131DC01CB01D9
:104060009C01AD01C701B6010E94FE30DC01CB010D
:1040700020E030E040E85FE3BC01CD010E948C30DD
:10408000DC01CB0120E030E04AE754E4BC01CD0183
:104090000E94E632DC01CB01BC01CD010E9453330A
:1040A000DC01CB01BF77BC01CD010E94AC31DC014A
:1040B000CB0189839A818981891760F08B899C89DA
:1040C0002D853E85FC01318320838D899E89FC01ED
:1040D00010820CC08B899C892B853C85FC01318327
:1040E00020838D899E8921E0FC01208381E06696F2
:1040F0000FB6F894DEBF0FBECDBFDF91CF91FF901A
:10410000EF90DF90CF900895CF93DF9300D000D051
:1041100000D0CDB7DEB7198289818A838A818B83EB
:104120008091D2018F71882F90E0880F991F880F9E
:10413000991F8A599F4FFC0180819181A281B3818F
:104140009E012A5F3F4FAE014C5F5F4FBC01CD0126
:104150000E94BD1E89E290E02C813D81FC012083FC
:1041600080E490E02C813D81232F33272F70FC01C8
:1041700020838E81882F90E0880F991F982F8B8144
:10418000892B8B838091D30187FB882780F9882F27
:1041900090E09695982F882797958795982F8A81F4
:1041A000892B8A838091D4018170882F90E000242C
:1041B000969587950794969587950794982F802DC7
:1041C000982F8A81892B8A838091D401869581706A
:1041D000882F90E0880F991F82959295907F98275D
:1041E000807F9827982F8A81892B8A838091D40198
:1041F00082FB882780F9882F90E082959295907FA6
:104200009827807F9827982F8A81892B8A8380918D
:10421000D4018470882321F060E088E10E9470025C
:104220008091D40183FB882780F9882F90E0880F44
:10423000991F880F991F880F991F982F8A81892BA2
:104240008A838091D4018870882321F06FEF89E1FF
:104250000E9470028091D201829586958770982F76
:1042600094708A81892B8A838091D2018295869568
:104270008770882F90E083709927880F991F982F57
:104280008981892B89838091D30182958F70837076
:10429000882F90E0002496958795079496958795AA
:1042A0000794982F802D982F8981892B898380915D
:1042B000D3018370882F90E082959295907F982704
:1042C000807F9827982F8981892B89838091D301BA
:1042D000869586958370882F90E0880F991F880FA8
:1042E000991F880F991F982F8981892B89838BE2C9
:1042F00090E02B81FC0120838AE290E02A81FC017E
:10430000208380E490E029812068FC012083000064
:1043100026960FB6F894DEBF0FBECDBFDF91CF91CA
:104320000895CF93DF93CDB7DEB78091D30180742A
:104330008823D9F08091D201807E83608093D2015E
:104340008091D2018F7180668093D2018091D301D8
:104350008C7F8093D3018091D301837F8093D3019D
:104360008091D3018F7C8093D3018091D4018460AC
:104370008093D4018091D40188608093D4010E94FD
:1043800084200000DF91CF910895CF93DF931F9297
:10439000CDB7DEB705C08CE290E0FC018081898357
:1043A0008BE290E0FC0180818823ACF300000F9049
:1043B000DF91CF910895CF93DF9300D0CDB7DEB7D3
:1043C0009A83898389819A8191709A83898389816B
:1043D0009A81892F9927892B51F08AE290E02AE26D
:1043E00030E0F90120812160FC01208309C08AE2CC
:1043F00090E02AE230E0F90120812E7FFC01208349
:104400008CE290E02981FC01208300008BE290E0A7
:10441000FC01808180748823C9F38BE290E02BE259
:1044200030E0F90120812064FC01208300000F901E
:104430000F90DF91CF910895CF93DF9300D0CDB748
:10444000DEB79A8389830DC089819A81FC018081BE
:10445000882F90E00E94DB2189819A8101969A83BE
:10446000898389819A81FC0180818A3031F0898138
:104470009A81FC018081882339F78AE090E00E94CC
:10448000DB2100000F900F90DF91CF910895CF9323
:10449000DF93CDB7DEB700008BE290E0FC018081B6
:1044A0008823D4F78AE290E0FC0180818CE290E0DE
:1044B000FC018081882F90E0DF91CF910895CF9308
:1044C000DF93CDB7DEB728970FB6F894DEBF0FBEE7
:1044D000CDBF9C838B834D835E836F8378870E94DF
:1044E000472289838D819E81AF81B8850297A1097A
:1044F000B1098D839E83AF83B8870DC08B819C816A
:104500009C012F5F3F4F3C832B832981FC0120833B
:104510000E944722898389818D30C1F089818A3048
:10452000A9F08981882391F08D819E81AF81B88522
:104530009C01AD0121503109410951092D833E8370
:104540004F835887892B8A2B8B2BC1F689818D301D
:1045500019F40E9447228A838B819C819C012F5FE2
:104560003F4F3C832B832AE0FC0120838B819C817D
:10457000FC011082000028960FB6F894DEBF0FBE33
:10458000CDBFDF91CF9108950F93CF93DF93CDB738
:10459000DEB76B970FB6F894DEBF0FBECDBF9B8F13
:1045A0008A8F19826A8D7B8DCE0104960DE22AE0F6
:1045B00030E040E050E00E949D27DC01CB018B837E
:1045C0008B81882F90E001962A8D3B8DB901680F71
:1045D000791FCE010F960AE02AE030E040E050E07B
:1045E0000E949D271A822CC08A81282F30E046E144
:1045F000429FC001439F900D11249C012D553F4FB8
:10460000CE010496B9010E9421288823B1F08A8145
:10461000282F30E046E1429FC001439F900D1124B6
:104620000B969C012D553F4FCE010F96B9010E946C
:104630002128882311F081E089838A818F5F8A8312
:104640008091A2009A81981778F289816B960FB6B3
:10465000F894DEBF0FBECDBFDF91CF910F910895CB
:10466000CF93DF93CDB7DEB7EC970FB6F894DEBFEC
:104670000FBECDBF8AAF7CAF6BAF8AAD882F90E005
:10468000A0E0B0E0AE01495C5F4F22E0BC01CD018B
:104690000E943827CE0105969A838983CE01C7965A
:1046A0009C838B8312C089819A819C012F5F3F4F2D
:1046B0003A8329832B813C81A9014F5F5F4F5C8343
:1046C0004B83F9012081FC0120838B819C81FC01BB
:1046D0008081882341F789819A819C012F5F3F4F18
:1046E0003A8329832AE3FC01208312C089819A81BD
:1046F0009C012F5F3F4F3A8329832BAD3CADA9012D
:104700004F5F5F4F5CAF4BAFF9012081FC0120830D
:104710008BAD9CADFC018081882341F789819A8112
:104720009C012F5F3F4F3A8329832AE0FC012083BD
:1047300089819A81FC011082CE0105960E941C227B
:104740000000EC960FB6F894DEBF0FBECDBFDF9130
:10475000CF9108950F93CF93DF93CDB7DEB7EA974C
:104760000FB6F894DEBF0FBECDBF98AF8FAB7AAF58
:1047700069AFCE01029642E350E060E070E00E9433
:104780005F221982BE016E5F7F4FCE01C4960AE39D
:1047900022E030E040E050E00E949D27DC01CB01A8
:1047A0008983CE01C4960E94E025DC01CB01282F2D
:1047B0008FA998ADFC0120838981882F90E0019614
:1047C0009E012E5F3F4FB901680F791F89AD9AADE9
:1047D0000AE02DE230E040E050E00E949D2700001A
:1047E000EA960FB6F894DEBF0FBECDBFDF91CF9132
:1047F0000F910895CF93DF9300D000D01F92CDB7D3
:10480000DEB769837A838B839C834D8389819A8108
:10481000AB81BC814D81BC01CD010E94242C0000E4
:104820000F900F900F900F900F90DF91CF91089500
:10483000CF93DF93CDB7DEB70E94F72B0E94E92913
:104840008091D3018F778093D3010E94842081E0EF
:104850008093C6010000DF91CF910895CF93DF933D
:10486000CDB7DEB70E94062C0E94F6298091D301B5
:1048700080688093D3010E9484201092C6010000BA
:10488000DF91CF9108951F920F9200905F000F92D9
:1048900011242F933F934F935F936F937F938F9345
:1048A0009F93AF93BF93EF93FF93CF93DF93CDB7D6
:1048B000DEB7AF97DEBFCDBF8091C7018F5F80931A
:1048C000C701CE010296BC01CE0101960E94AA2327
:1048D0008981882F90E08A309105A9F08B3091056D
:1048E0001CF4059741F081C08431910599F14597F9
:1048F00009F456C07AC02981CE010296BC01822FEC
:104900000E94302372C0CE0102960E94C4228823E6
:1049100061F061EA71E08AE00E94302381E08093D7
:10492000C80183E080937F015FC063EA71E08AE0A1
:104930000E9430231092C80180917F0181508093A2
:104940007F01882309F050C083E080937F010E949B
:1049500018244AC08091C8018823E1F0CE01029654
:1049600061EA71E00E942128882351F06FEF87E00F
:104970000E946A0361EA71E084E10E94302335C03D
:1049800060E087E00E946A0363EA71E084E10E94CC
:1049900030232BC065EA71E08AE00E94302325C0F5
:1049A0008091C8018823D1F0CE01029661EA71E0BE
:1049B0000E942128882349F086E00E94911E61EA26
:1049C00071E085E10E94302310C086E00E94A01EA5
:1049D00063EA71E085E10E94302307C065EA71E077
:1049E0008AE00E94302301C000000E94C52100001F
:1049F000AF960FB6F894DEBF0FBECDBFDF91CF915B
:104A0000FF91EF91BF91AF919F918F917F916F91A6
:104A10005F914F913F912F910F9000925F000F9007
:104A20001F9018951F920F9200905F000F92112413
:104A30002F933F934F935F936F937F938F939F93A6
:104A4000AF93BF93EF93FF93CF93DF93CDB7DEB7D1
:104A50008091C9019091CA01A091CB01B091CC0184
:104A6000893E9340A105B10568F48091C9019091F8
:104A7000CA01A091CB01B091CC018C599F4FAF4F8F
:104A8000BF4F04C084EF91E0A0E0B0E08093C90183
:104A90009093CA01A093CB01B093CC018091C9013E
:104AA0009091CA01A091CB01B091CC0142E3BC012D
:104AB000CD010E94FA238091CD019091CE01A09169
:104AC000CF01B091D0014996A11DB11D8093CD01B8
:104AD0009093CE01A093CF01B093D0018091CD01EE
:104AE0009091CE01A091CF01B091D0018031974239
:104AF000A105B10550F00E942E241092CD01109214
:104B0000CE011092CF011092D0018EE10E94AF1E13
:104B10000000DF91CF91FF91EF91BF91AF919F91F5
:104B20008F917F916F915F914F913F912F910F9056
:104B300000925F000F901F901895CF93DF931F9204
:104B4000CDB7DEB78091D30180648093D30180918B
:104B5000D30180688093D3010E9491218FE590E07A
:104B60002FE530E0F90120812068FC0120830E94BC
:104B70004B0568EA71E680E090E00E94D72882E069
:104B80000E949B296FEF87E00E94700286E00E94DE
:104B9000681C8EE10E94681C83E0898307C042E3A1
:104BA00050E060E070E08EE10E94841D89819FEFFB
:104BB000980F9983882399F782E00E94AB29FCCF54
:104BC000CF93DF9300D000D000D0CDB7DEB79E8367
:104BD0008D8319821A821B821C8200008D819E8126
:104BE000FC0180818032D1F38D819E81FC01808126
:104BF0008930A1F336C089819A81AB81BC81880F4D
:104C0000991FAA1FBB1F9C01AD01220F331F441F18
:104C1000551F220F331F441F551F820F931FA41FC0
:104C2000B51F89839A83AB83BC838D819E81FC01F0
:104C30008081882F90E0C097092E000CAA0BBB0B37
:104C400029813A814B815C81820F931FA41FB51F7C
:104C500089839A83AB83BC838D819E8101969E83D9
:104C60008D838D819E81FC018081803338F08D8120
:104C70009E81FC0180818A3308F4BDCF89819A81AD
:104C8000AB81BC81BC01CD0126960FB6F894DEBF86
:104C90000FBECDBFDF91CF910895CF93DF9300D0AA
:104CA00000D000D0CDB7DEB79E838D8319821A82E3
:104CB0001B821C820BC089819A81AB81BC810196C9
:104CC000A11DB11D89839A83AB83BC838D819E8195
:104CD0009C012F5F3F4F3E832D83FC018081882301
:104CE00051F789819A81AB81BC81BC01CD012696A7
:104CF0000FB6F894DEBF0FBECDBFDF91CF91089500
:104D0000CF93DF93CDB7DEB727970FB6F894DEBF0A
:104D10000FBECDBF9F838E838E819F819A838983AF
:104D20008E819F810E944D26DC01CB0101972E814F
:104D30003F81820F931F9C838B831CC089819A8142
:104D4000FC0180818D838B819C81FC012081898184
:104D50009A81FC0120838B819C812D81FC01208321
:104D600089819A8101969A8389838B819C8101979D
:104D70009C838B8329813A818B819C818217930745
:104D8000E8F6000027960FB6F894DEBF0FBECDBF41
:104D9000DF91CF9108950F931F93CF93DF93CDB7FA
:104DA000DEB72A970FB6F894DEBF0FBECDBF6D8376
:104DB0007E838F8398875A87498719821A821B823C
:104DC0001C8289819A81AB81BC819C01AD012F5FDE
:104DD0003F4F4F4F5F4F29833A834B835C839C0146
:104DE00089859A858C01020F131F8D819E81AF8169
:104DF000B8852AE030E040E050E0BC01CD010E94DF
:104E0000C02EDC01CB01805DF80180838D819E8105
:104E1000AF81B8852AE030E040E050E0BC01CD0130
:104E20000E94C02EDA01C9018D839E83AF83B887AB
:104E30008D819E81AF81B885892B8A2B8B2B09F6BA
:104E400089819A8129853A85820F931FFC011082FE
:104E500089859A850E94802600002A960FB6F894CC
:104E6000DEBF0FBECDBFDF91CF911F910F9108958F
:104E7000CF93DF93CDB7DEB72D970FB6F894DEBF93
:104E80000FBECDBF6F83788789879A875C874B87F2
:104E90002D878F819885A985BA8589839A83AB836D
:104EA000BC8381E08D8303C08D818F5F8D83898179
:104EB0009A81AB81BC812AE030E040E050E0BC0147
:104EC000CD010E94C02EDA01C90189839A83AB8388
:104ED000BC8389819A81AB81BC81892B8A2B8B2BE6
:104EE00019F79D858D81292F281B822F8E830AC05B
:104EF0008B859C859C012F5F3F4F3C872B8720E350
:104F0000FC0120838E819FEF980F9E83882381F779
:104F10002B853C858F819885A985BA85A901BC011F
:104F2000CD010E94CB2600002D960FB6F894DEBF6F
:104F30000FBECDBFDF91CF9108950F93CF93DF9335
:104F4000CDB7DEB72F970FB6F894DEBF0FBECDBF3B
:104F500098878F837A8769872B873C874D875E8701
:104F60000F878F8198859E838D8319821A821B8279
:104F70001C821DC08F8198859C012F5F3F4F388711
:104F80002F8329853A85A9014F5F5F4F5A8749874B
:104F9000F9012081FC01208389819A81AB81BC8148
:104FA0000196A11DB11D89839A83AB83BC8389853A
:104FB0009A85FC0180818823D1F089859A85FC013E
:104FC00080818A30A1F089859A85FC0190818F8546
:104FD000981769F029813A814B815C818B859C858A
:104FE000AD85BE85281739074A075B0718F2298166
:104FF0003A814B815C818B859C85AD85BE8582170E
:105000009307A407B50748F48D819E81FC011082A7
:1050100019821A821B821C8204C08F819885FC0130
:10502000108289819A81AB81BC81BC01CD012F9610
:105030000FB6F894DEBF0FBECDBFDF91CF910F91B9
:105040000895CF93DF9300D000D01F92CDB7DEB785
:105050009B838A837D836C8381E0898316C08A81E8
:105060009B81FC0120818C819D81FC01808128171E
:1050700011F0198216C08A819B8101969B838A83D5
:105080008C819D8101969D838C838A819B81FC010B
:105090008081882331F08C819D81FC01808188236F
:1050A000F1F68A819B81FC0120818C819D81FC012C
:1050B0008081281709F0198289810F900F900F9035
:1050C0000F900F90DF91CF910895CF93DF93CDB7DD
:1050D000DEB760970FB6F894DEBF0FBECDBF9E87D8
:1050E0008D87788B6F878D859E850E944D26DC018C
:1050F000CB018B839C83AD83BE838F8598890E946F
:105100004D26DC01CB018F839887A987BA872B8135
:105110003C818F819885820F931F01960E94A03356
:105120009C878B878B859C859A83898312C0898114
:105130009A819C012F5F3F4F3A8329832D853E85BD
:10514000A9014F5F5F4F5E874D87F9012081FC0108
:1051500020838D859E85FC018081882341F712C0C4
:1051600089819A819C012F5F3F4F3A8329832F8544
:105170003889A9014F5F5F4F588B4F87F901208114
:10518000FC0120838F859889FC018081882341F769
:1051900089819A81FC0110828B859C8560960FB66F
:1051A000F894DEBF0FBECDBFDF91CF910895CF93AE
:1051B000DF93CDB7DEB72D970FB6F894DEBF0FBEE5
:1051C000CDBF6A877B878C879D878A859B85AC85C9
:1051D000BD85892B8A2B8B2B09F46FC08A859B8513
:1051E000AC85BD8581309D47A105B10508F065C03E
:1051F00082E08093D8016A857B858C859D850E949D
:10520000E131DC01CB019C01AD0160E074E284E797
:1052100099E40E94FE30DC01CB01BC01CD010E946B
:10522000AC31DC01CB018E839F83A887B9871D82B7
:1052300035C08D81882F90E0880F991F8E549E4F26
:10524000FC01808191819C0140E050E08E819F8132
:10525000A885B985BC01CD010E949C2E9B01AC01A3
:1052600080E092E1AAE7B0E0BC01CD010E94C02E2F
:10527000DA01C9010197A109B10989839A83AB8336
:10528000BC8389819A81AB81BC818F3F9105A10547
:10529000B10541F038F08D818F5F8D838D81853030
:1052A00040F201C0000089818093D7018D818F5F1A
:1052B0008093DA010E941A2A01C000002D960FB6D1
:1052C000F894DEBF0FBECDBFDF91CF910895CF938D
:1052D000DF9300D0CDB7DEB789836A8389818530BB
:1052E00020F589818F5F8093DA018A818823A1F07C
:1052F0008A81882F90E0982F882724E630E0B90132
:105300000E94AC2ECB018093D70183E08093D8011B
:1053100082E08093D90106C060E08BE00E946A03BE
:105320001092D9010E941A2A01C000000F900F901C
:10533000DF91CF910895CF93DF931F92CDB7DEB762
:10534000898389818093DB010E941A2A00000F90D3
:10535000DF91CF910895CF93DF9300D0CDB7DEB723
:105360008A838A81813029F08A81823011F08FEF1F
:105370002BC08A8181508A8388E590E0FC0180817E
:10538000882F90E02A81222F30E002C095958795E2
:105390002A95E2F78170898389818130A1F488E5BB
:1053A00090E028E530E0F9012081622F2A81422F28
:1053B00050E021E030E002C0220F331F4A95E2F7AF
:1053C000262BFC01208389810F900F90DF91CF91D4
:1053D0000895CF93DF93CDB7DEB781E08093D501F9
:1053E0000E941A2A0000DF91CF910895CF93DF9396
:1053F000CDB7DEB71092D5010E941A2A0000DF91C6
:10540000CF910895CF93DF93CDB7DEB71092D5013A
:105410001092D6011092D7011092D8011092D901A2
:105420001092DA011092DB010E941A2A0000DF912B
:10543000CF910895CF93DF931F92CDB7DEB7198236
:105440008091D801843008F07BC08091D9018430EC
:1054500008F076C08091DA01883008F071C0809140
:10546000DB01833008F06CC08CE590E02091D7011F
:10547000FC0120838091D601882331F082E590E001
:105480002091D601FC0120838091D801882F90E0E3
:105490008D7F002496958795079496958795079418
:1054A000982F802D982F8981892B89838091D8010D
:1054B000882F90E08E7F880F991F880F991F982F53
:1054C0008981892B89838091D901882F90E08295E9
:1054D0009295907F9827807F9827982F8981892B94
:1054E00089838091D901882321F06FEF8BE00E949E
:1054F00070028091D501882349F08091DA018823D8
:1055000029F08091DA019981892B898383E590E0E4
:105510002981FC01208389E590E029E530E0F9014B
:1055200020812C7FFC01208389E590E029E530E093
:10553000F90130812091DB01232BFC01208301C084
:1055400000000F90DF91CF910895CF93DF9300D0AB
:10555000CDB7DEB71A8219828091E40186958F70EB
:10556000882F90E040970CF03CC18091E401829537
:10557000869587708370882F90E004970CF031C176
:105580008091E401881F8827881F9091E501917020
:10559000990F892B882F90E004970CF022C18091FD
:1055A000E50186958770882F90E008970CF019C167
:1055B0008091E50182958F708770882F90E0059724
:1055C0000CF00FC18AE490E02091E0013091E101FC
:1055D000FC013183208388E490E02091E201309146
:1055E000E301FC01318320838091DC019091DD0196
:1055F000892B49F08CE490E02091DC013091DD01B1
:10560000FC01318320838091DE019091DF01892BA1
:1056100049F086E490E02091DE013091DF01FC0149
:10562000318320838091E40186958F70982F937049
:105630008A81892B8A838091E40186958F70882FD7
:1056400090E08C709927880F991F982F8981892B5A
:1056500089838091E4018295869587708370882F75
:1056600090E00024969587950794969587950794E2
:10567000982F802D982F8A81892B8A838091E4012D
:105680008076882321F06FEF8DE10E947002809177
:10569000E401881F8827881F9091E5019170990F78
:1056A000892B882F90E082959295907F9827807F14
:1056B0009827982F8A81892B8A838091E401881FFB
:1056C0008827881F9091E5019170990F892B882375
:1056D00021F06FEF8CE10E9470028091E4018170F3
:1056E000882371F08091E5018E70882349F08091C4
:1056F000E50186958770982F8981892B898320C041
:105700008091E4018170882359F08091E5018E70C9
:10571000882331F48091D1019981892B898310C02C
:105720008091E4018170882359F48091E5018E70A5
:10573000882331F08091E501869587708093D101AF
:105740008FE490E02A81FC0120838EE490E029819F
:10575000FC01208389E590E029E530E0F901208112
:10576000237CFC0120838091E50182958F708770F6
:10577000882F90E082309105B1F0833091051CF4C0
:10578000019739F02FC083309105B9F00497F9F0F3
:1057900029C089E590E029E530E0F9012081246005
:1057A000FC0120831FC089E590E029E530E0F90184
:1057B00020812860FC01208315C089E590E029E55F
:1057C00030E0F90120812061FC0120830BC089E5D4
:1057D00090E029E530E0F90120812062FC0120837E
:1057E00001C000000F900F90DF91CF910895CF93EB
:1057F000DF93CDB7DEB78091E40181608093E4014F
:105800000E94A52A0000DF91CF910895CF93DF93E6
:10581000CDB7DEB78091E4018E7F8093E401809163
:10582000E4018F798093E4018091E4018F77809384
:10583000E4018091E5018E7F8093E5010E94A52A15
:105840000000DF91CF910895CF93DF93CDB7DEB7FE
:105850002A970FB6F894DEBF0FBECDBF6E837F834D
:10586000888799874A878E819F81A885B9858130ED
:105870009241AA47B10508F095C08091E401817E6C
:105880008C618093E4018091E4018F79806480933E
:10589000E4018A85843651F48091E4018F79809304
:1058A000E4016FEF8DE10E946A0379C08A85882345
:1058B00009F46CC01D8233C08D81882F90E0880F61
:1058C000991F84549E4FFC01808191819C0140E08E
:1058D00050E08E819F81A885B985BC01CD010E94D1
:1058E0009C2E9B01AC0180E092E1AAE7B0E0BC01F4
:1058F000CD010E94C02EDA01C9010197A109B109A9
:1059000089839A83AB83BC8389819A81AB81BC8173
:105910000097A140B10538F08D818F5F8D838D8117
:10592000853050F201C0000089819A819093DF0197
:105930008093DE018D818F5F87708770880F9091D3
:10594000E501917F892B8093E5018A85282F30E03E
:1059500040E050E08091DE019091DF01CC01A0E0B9
:10596000B0E0BC01CD010E949C2EDC01CB0124E6FD
:1059700030E040E050E0BC01CD010E94C02EDA01D1
:10598000C9019093E1018093E00109C08091E40195
:105990008F798093E40160E08DE10E946A030E94A8
:1059A000A52A01C000002A960FB6F894DEBF0FBEEC
:1059B000CDBFDF91CF910895CF93DF93CDB7DEB701
:1059C0008091E4018F798093E4010E94A52A000070
:1059D000DF91CF910895CF93DF93CDB7DEB72A97AC
:1059E0000FB6F894DEBF0FBECDBF6E837F8388876E
:1059F00099874A878E819F81A885B9858130924198
:105A0000AA47B10508F0A3C08091E401817E8C61B2
:105A10008093E4018091E4018F778093E401809189
:105A2000E50181608093E5018A85843679F480916F
:105A3000E4018F778093E4018091E5018E7F80936C
:105A4000E5016FEF8CE10E946A037EC08A8588239E
:105A500009F46CC01D8233C08D81882F90E0880FBF
:105A6000991F84549E4FFC01808191819C0140E0EC
:105A700050E08E819F81A885B985BC01CD010E942F
:105A80009C2E9B01AC0180E092E1AAE7B0E0BC0152
:105A9000CD010E94C02EDA01C9010197A109B10907
:105AA00089839A83AB83BC8389819A81AB81BC81D2
:105AB0000097A140B10538F08D818F5F8D838D8176
:105AC000853050F201C0000089819A819093DF01F6
:105AD0008093DE018D818F5F87708770880F909132
